:1070000055C000006EC000006CC000006AC00000E7
:1070100068C0000066C0000064C0000062C00000DC
:1070200060C000005EC0000008C500005AC000003B
:1070300058C0000056C0000054C0000052C00000FC
:1070400050C000004EC000004CC000004AC000000C
:10705000FBC2000046C0000044C0000042C0000067
:1070600040C000003EC000003CC000003AC000002C
:1070700038C0000036C0000034C0000032C000003C
:1070800030C000002EC000002CC000002AC000004C
:1070900028C0000026C0000024C0000022C000005C
:1070A00020C000001EC000001CC0000011241FBE34
:1070B000CFEFDAE0DEBFCDBF11E0A0E0B1E0EAE063
:1070C000FEE702C005900D92A839B107D9F721E07B
:1070D000A8E9B1E001C01D92A63AB207E1F730D0AD
:1070E00092C68ECF84E08093E9008091E80085FD10
:1070F0000DC08091E8008B778093E8008091E800D4
:1071000082FDF3CF8EB38111F9CF02C08091F100DF
:10711000089593E09093E9009091E80095FF03C0F3
:107120008093F10008959091E8009E779093E80095
:107130009091E80090FDF4CF9EB39111F9CF08959E
:10714000CF93DF9300D000D0CDB7DEB784B7877F71
:1071500084BF0FB6F894A8958091600088618093F1
:107160006000109260000FBE90E080E80FB6F894C7
:1071700080936100909361000FBE11E015BF82E023
:1071800085BF3ED487B1806C87B988B1806C88B9DF
:1071900010936F0083E08093810088B1806C8F77BB
:1071A00088B97894A3E0BA2EB5E0AB2E212C312C0F
:1071B00080E991E027E0280F29838091000188234E
:1071C00009F42CC284E08093E9008091E80082FFFA
:1071D00023C288DF982F853419F41092000107C06C
:1071E00088E8890F823010F0943521F47BDF8DE040
:1071F00090DFEAC19035D9F39C34C9F3943721F478
:1072000084E487DF80E0F4CF913611F489E5F0CF94
:10721000913491F467DF082F65DF90E0880F991FA4
:10722000202F30E0322F2227330F822B932B092E71
:10723000000CAA0BBB0B9CC1903711F483E5D8CF8F
:10724000933561F470E9E72E71E0F72EF701819133
:107250007F015FDF29812E11F9CFB6C1963521F468
:1072600081E357DF80E3C4CF933731F487E851DF00
:1072700085E94FDF8EE1BCCF9536A9F4E0E0F0E080
:10728000B0925700E89507B600FCFDCFA0925700DA
:10729000E89507B600FCFDCFE058FF4FE11580E709
:1072A000F80771F7A4CF9C3651F41CDF809599E064
:1072B000E1E0F0E0082E90935700E89598CF9237E0
:1072C00021F489E0E1E0F0E010C0963419F489E09F
:1072D000F1010BC09E3421F489E0E3E0F0E005C049
:1072E000913539F489E0E2E0F0E080935700849131
:1072F0007FCF923631F489E50CDF80E00ADF80E849
:1073000077CF923419F0973609F0CDC09A83EADE30
:10731000E82EF12CFE2CEE24E5DEE82AE3DE082F31
:107320008BEB800F9A81823010F08FE361CF97361C
:1073300009F044C081E180935700E8953701912C12
:107340006114710409F440C1C0909801D090990172
:10735000E0909A01F0909B010634B9F4E92DF0E039
:10736000EC29FD298491D5DE992069F0F2E0CF0E59
:10737000D11CE11CF11CC0929801D0929901E092BD
:107380009A01F0929B01912615C0D701C601B695CE
:10739000A7959795879521D5BCDE22E0C20ED11C1A
:1073A000E11CF11CC0929801D0929901E0929A01DF
:1073B000F0929B0181E0681A7108C2CF4090980159
:1073C0005090990160909A0170909B01063439F4B5
:1073D000F201B0925700E89507B600FCFDCFFC82A1
:1073E000EB82812C912CEB81FC81EF2B09F450C0B6
:1073F000063431F5992001F1C0909801D09099019F
:10740000E0909A01F0909B016DDE282D30E0382B42
:10741000F601090110935700E8951124F2E0CF0E10
:10742000D11CE11CF11CC0929801D0929901E0920C
:107430009A01F0929B0102C055DE882E912622C04F
:1074400051DE682F8091980190919901A0919A0145
:10745000B0919B01B695A79597958795C6D48091D5
:10746000980190919901A0919A01B0919B01029687
:10747000A11DB11D8093980190939901A0939A0149
:10748000B0939B018B819C8101979C838B83ABCFB5
:10749000063409F0ACCEF201A0925700E89507B689
:1074A00000FCFDCFA4CE933469F4E0909801F090F5
:1074B000990118DE90E0F7010C0110935700E89550
:1074C000112495CE9336F9F4C0909801D09099018B
:1074D000E0909A01F0909B0105DEF601E16090E0FA
:1074E0000C0110935700E8951124F2E0CF0ED11C47
:1074F000E11CF11CC0929801D0929901E0929A018E
:10750000F0929B0174CE9D3659F4E0919801F09170
:107510009901A0925700E89507B600FCFDCF67CE11
:10752000923551F4E0919801F0919901E590F49031
:107530008F2DEFDD8E2D5CCE943419F5D3DD682FC1
:107540008091980190919901A0919A01B0919B012D
:10755000B695A7959795879548D480919801909175
:107560009901A0919A01B0919B010296A11DB11DB4
:107570008093980190939901A0939A01B0939B01F5
:1075800036CE9436F1F4C0909801D0909901E090F5
:107590009A01F0909B01D701C601B695A7959795E2
:1075A00087951BD4B6DD22E0C20ED11CE11CF11C74
:1075B000C0929801D0929901E0929A01F0929B01B9
:1075C00003C09B3109F0B1CEB092E9009091E80080
:1075D0008091E8008E778093E80095FD11C080913E
:1075E000E80080FD04C08EB38111F9CF15C08091F1
:1075F000E8008E778093E80003C08EB3882361F0A3
:107600008091E80080FFF9CF84E08093E9008091C9
:10761000E8008B778093E800C7D3CFCD8091E0005E
:1076200081608093E00082E49CED9093A7018093B9
:10763000A6019CE088E10FB6F894A89580936000BD
:107640000FBE90936000FFCF1F920F920FB60F9264
:1076500011248F9380EC86B98F910F900FBE0F90FD
:107660001F90189542E061EC82E05ED142E161E852
:1076700083E05AD142E160E884E056C180919E01E6
:107680008F77813269F580EC86B980919F018032D5
:10769000A1F0813229F580919E01813A09F580910E
:1076A000E800877F8093E80067E070E081E091E088
:1076B0009CD08091E8008B7711C080919E0181322F
:1076C00079F48091E800877F8093E80067E070E0BC
:1076D00081E091E0EBD08091E8008E778093E80024
:1076E0000895292F30E02230310559F0233031053B
:1076F00069F021303105F9F482E190E02EE731E0C4
:107700001EC08EE390E020E431E019C0882349F0E8
:10771000813061F0823079F48CE190E028E031E052
:107720000EC084E090E02CE331E009C084E190E0F9
:1077300026E231E004C080E090E020E030E0FA0191
:1077400031832083089507B600FCFDCFF999FECF61
:1077500023E0FB0120935700E89507B600FCFDCF1E
:1077600081E180935700E895089507B600FCFDCFAE
:10777000F999FECF25E0FB0120935700E89507B665
:1077800000FCFDCF81E180935700E895089507B68E
:1077900000FCFDCFF999FECF21E0FB010A01209307
:1077A0005700E8951124089521E2FC012093570029
:1077B0008491089529E0FC01209357008491089555
:1077C000E1E0F0E089E0809357008491089507B6E6
:1077D00000FCFDCFF999FECF809599E0E1E0F0E063
:1077E000082E90935700E89508952091A4013091B8
:1077F000A5012617370748F06115710539F4209166
:10780000E8002E772093E80001C0B90140E061153F
:107810007105A1F12EB3222309F442C0253009F4E9
:1078200041C02091E80023FD3FC02091E80022FDE7
:1078300031C02091E80020FFEACF4091F300209171
:10784000F20030E0342BFC01CF016115710559F0D5
:107850002830310540F481918093F1006150710925
:107860002F5F3F4FF1CF41E02830310509F040E074
:107870002091E8002E772093E800C9CF4111CACFAC
:1078800009C08EB3882361F0853061F08091E800F3
:1078900083FD0AC08091E80082FFF3CF80E0089565
:1078A00082E0089583E0089581E0089561157105EF
:1078B00029F42091E8002B772093E800FC01611562
:1078C000710531F18EB3882359F1853059F18091DA
:1078D000E80083FD23C08091E80082FFF0CF209173
:1078E000F3008091F20090E0922B892B31F080918F
:1078F000F10081936150710991F78091E8008B77D5
:107900008093E800DCCF8EB3882351F0853051F0AE
:107910008091E80080FFF7CF80E0089581E008952E
:1079200082E0089583E008958F708093E900EBEE84
:10793000F0E0808181608083EDEEF0E01082609362
:10794000EC0040838091EE00881F8827881F0895EF
:1079500080919E0187FF0FC08091E80082FD04C0E6
:107960008EB38111F9CF10C08091E8008B770AC0E7
:107970008EB3882349F08091E80080FFF9CF809191
:10798000E8008E778093E80008950F931F93CF93BC
:10799000DF9346D04DD0C8EDD0E088818F778883C3
:1079A00088818068888388818F7D888319BC1EBA0E
:1079B00010929C0100EE10E0F80180818B7F8083A3
:1079C00088818160888342E060E080E0ADDFE1EEA5
:1079D000F0E080818E7F8083E2EEF0E08081816044
:1079E0008083808188608083F80180818E7F80839E
:1079F000888180618883DF91CF911F910F910895D5
:107A0000E8EDF0E080818F7E8083E7EDF0E080811B
:107A10008160808384E082BF81E080939D01B5CF47
:107A2000E8EDF0E080818E7F80831092E20008957F
:107A30001092DA001092E10008951F920F920FB693
:107A40000F9211242F933F934F935F936F937F93E4
:107A50008F939F93AF93BF93EF93FF938091DA003F
:107A600080FF1BC08091D80080FF17C08091DA0092
:107A70008E7F8093DA008091D90080FF0BC080E177
:107A800089BD82E189BD09B400FEFDCF81E08EBBD6
:107A90008AD103C019BC1EBA86D18091E10080FF53
:107AA00017C08091E20080FF13C08091E2008E7FBA
:107AB0008093E2008091E20080618093E2008091F7
:107AC000D80080628093D80019BC85E08EBB6BD152
:107AD0008091E10084FF2EC08091E20084FF2AC0E3
:107AE00080E189BD82E189BD09B400FEFDCF8091AE
:107AF000D8008F7D8093D8008091E1008F7E8093A5
:107B0000E1008091E2008F7E8093E2008091E200AC
:107B100081608093E20080919C01882311F084E0D1
:107B200007C08091E30087FD02C081E001C083E0CF
:107B30008EBB39D18091E10083FF21C08091E200AA
:107B400083FF1DC08091E100877F8093E10082E088
:107B50008EBB10929C018091E1008E7F8093E100AA
:107B60008091E2008E7F8093E2008091E20080614C
:107B70008093E20042E060E080E0D6DE14D1FF9125
:107B8000EF91BF91AF919F918F917F916F915F9195
:107B90004F913F912F910F900FBE0F901F9018950E
:107BA0001F93CF93DF9300D0CDB7DEB7EEE9F1E0BE
:107BB00088E08E0F9091F10091938E13FBCF5EDDE4
:107BC0008091E80083FFDBC080919E0190919F012E
:107BD000953009F466C030F4913059F168F0933073
:107BE00041F1CDC0983009F49DC0993009F4ACC082
:107BF000963009F0C4C076C0803881F0823809F030
:107C0000BEC08091A2018F708093E9008091EB004B
:107C100085FB882780F91092E90001C080E09091EF
:107C2000E800977F9093E8008093F1001092F100B4
:107C300084C0282F2D7F09F0A2C0823009F09FC098
:107C40008091A001811127C08091A2018F7009F459
:107C500096C08093E9002091EB0020FF1CC0933078
:107C600021F48091EB00806214C09091EB00906150
:107C70009093EB0021E030E0A90102C0440F551FB2
:107C80008A95E2F74093EA001092EA008091EB00B7
:107C900088608093EB001092E9008091E800877F74
:107CA0004FC081116CC01091A0011F778091E3003B
:107CB0008078812B8093E3008091E800877F809318
:107CC000E80046DE8091E80080FFFCCF8091E30071
:107CD00080688093E300111102C082E001C083E05C
:107CE0008EBB4DC08058823008F049C0AE014F5F56
:107CF0005F4F6091A2018091A0019091A101F1DC00
:107D0000BC01892B09F43BC09091E800977F9093C8
:107D1000E80089819A8169DD8091E8008B77809302
:107D2000E8002DC0803859F58091E800877F809366
:107D3000E80080919C018093F1008091E8008E77AB
:107D40008093E80005DE1BC0811119C09091A0014D
:107D50009230A8F48091E800877F8093E8009093A8
:107D60009C01F6DD80919C01811106C08091E300A9
:107D700087FD02C081E001C084E08EBB73DC80918E
:107D8000E80083FF0AC08091E800877F8093E800C5
:107D90008091EB0080628093EB000F900F90DF9159
:107DA000CF911F9108950895CF938EB3882399F0B2
:107DB000C091E900CF709091EC00892F817090FD07
:107DC00080E8C82B1092E9008091E80083FDE8DE8E
:107DD000CF70C093E900CF910895F999FECF92BD7D
:107DE00081BDF89A992780B50895262FF999FECF7D
:107DF0001FBA92BD81BD20BD0FB6F894FA9AF99AC8
:0A7E00000FBE01960895F894FFCF1D
:107E0A0001000000000000081C0343004900410073
:107E1A004F004400550049004E004F002000430027
:107E2A00440043000000140341006E006F006E001E
:107E3A0079006D006F0075007300000004030904E7
:107E4A0009023E0002010080320904000001020218
:107E5A000100052400100104240200052406000183
:107E6A00070582030800FF09040100020A00000056
:107E7A000705040210000507058302100005120118
:107E8A001001020000084F1B070000010102000157
:087E9A004C55464143444300EE
:107FA000D2CBE3CBF4CB00CC05CC0ACC10CC0895DB
:087FB000089508950895089555
:107FE000DFCFDFCFDFCFDFCFDFCFDFCFDFCFDFCF21
:087FF000DFCFDFCFDFCFDFCFD1
:087FF8000070000000DFFBDC5B
:040000030000700089
:00000001FF
