:107000005FC0000094C0000092C0000090C000006B
:107010008EC000008CC000008AC0000088C0000044
:1070200086C0000084C0000025C5000080C00000AC
:107030007EC000007CC000007AC0000078C0000064
:1070400076C0000074C0000072C0000070C0000074
:107050001DC300006CC000006AC0000068C00000D2
:1070600066C0000064C0000062C0000060C0000094
:107070005EC000005CC000005AC0000058C00000A4
:1070800056C0000054C0000052C0000050C00000B4
:107090004EC000004CC000004AC0000048C00000C4
:1070A00046C0000044C0000042C000000D3E2A3E21
:1070B000CD3E2A3ECD3E5F3E803ECD3EA03EB23E1E
:1070C00011241FBECFEFDAE0DEBFCDBF04B603FE52
:1070D00019C08091A0019091A10182349C4D91F43E
:1070E00084B7877F84BF88E10FB6F89480936000EF
:1070F000109260000FBE1092A1011092A001E0E07A
:10710000F0E0099511E0A0E0B1E0E6E3FEE702C09F
:1071100005900D92A239B107D9F721E0A2E9B1E0BB
:1071200001C01D92A03AB207E1F731D082C668CF04
:1071300084E08093E9008091E80085FD0EC0809195
:10714000E8008B778093E8008091E80082FDF3CF20
:107150008EB38111F9CF80E008958091F1000895F8
:1071600093E09093E9009091E80095FF03C080932D
:10717000F10008959091E8009E779093E800909137
:10718000E80090FDF4CF9EB39111F9CF0895CF930D
:10719000DF9300D01F92CDB7DEB784B7877F84BF5F
:1071A00088E10FB6F89480936000109260000FBEE3
:1071B00090E080E80FB6F8948093610090936100AE
:1071C0000FBE11E015BF82E085BF37D487B1806C58
:1071D00087B988B1806C88B910936F0083E0809381
:1071E000810088B1806C8F7788B97894A3E07A2E7B
:1071F000B5E06B2E212C312C80910001882309F4FD
:107200002EC284E08093E9008091E80082FF25C2CD
:107210008FDF982F853419F41092000107C088E899
:10722000890F823010F0943521F482DF8DE098DFF1
:10723000ECC19035D9F39C34C9F3943721F484E43C
:107240008FDF80E0F4CF913611F489E5F0CF9134EF
:1072500091F46EDF082F6CDF90E0880F991F202FCC
:1072600030E0322F2227330F822B932BAA2797FD52
:10727000A095BA2F9EC1903711F483E5D8CF9335EE
:1072800071F47AE8E72E71E0F72EF70181917F0122
:1072900067DFF1E9EF16F1E0FF06B9F7B6C1963501
:1072A00021F481E35DDF80E3C2CF933731F487E8D7
:1072B00057DF85E955DF8EE1BACF9536A9F4E0E0D6
:1072C000F0E070925700E89507B600FCFDCF6092A1
:1072D0005700E89507B600FCFDCFE058FF4FE115D9
:1072E00080E7F80771F7A2CF9C3651F421DF809533
:1072F00099E0E1E0F0E0082E90935700E89596CFF2
:10730000923721F489E0E1E0F0E010C0963419F4FE
:1073100089E0F1010BC09E3421F489E0E3E0F0E064
:1073200005C0913539F489E0E2E0F0E08093570040
:1073300084917DCF923631F489E512DF80E010DF51
:1073400080E875CF923419F0973609F0CDC0998353
:10735000EFDE882E912C982C8824EADE882AE8DE3D
:10736000082F8BEB800F9981823010F08FE35FCF75
:10737000973609F043C081E180935700E895B12C1E
:107380008114910409F441C1C0909201D0909301FD
:10739000E0909401F09095010634B9F4EB2DF0E003
:1073A000EC29FD298491DCDEBB2069F0F2E0CF0EF0
:1073B000D11CE11CF11CC0929201D0929301E09289
:1073C0009401F0929501B12615C0D701C601B6957A
:1073D000A7959795879517D5C3DE82E0C80ED11C77
:1073E000E11CF11CC0929201D0929301E0929401B1
:1073F000F092950191E0891A9108C2CFC090920154
:10740000D0909301E0909401F0909501063429F01A
:107410009B828A82412C512C31C0F6017092570018
:10742000E89507B600FCFDCFF3CF063479F555207B
:1074300051F18090920190909301A0909401B090AE
:10744000950176DE242D30E0382BF40109011093EC
:107450005700E8951124F2E08F0E911CA11CB11C7D
:107460008092920190929301A0929401B092950122
:1074700051268A819B8101979B838A83EA81FB81C4
:10748000EF2B99F626C054DE482EF2CF51DE682F3E
:107490008091920190919301A0919401B0919501F6
:1074A000B695A79597958795B6D4809192019091BE
:1074B0009301A0919401B09195010296A11DB11D77
:1074C0008093920190939301A0939401B0939501BE
:1074D000D0CF063409F0AACEF60160925700E895A5
:1074E00007B600FCFDCFA2CE933469F4E090920180
:1074F000F09093011DDE90E0F7010C01109357000E
:10750000E895112493CE9336F9F4C0909201D0906F
:107510009301E0909401F09095010ADEF601E1609C
:1075200090E00C0110935700E8951124F2E0CF0E83
:10753000D11CE11CF11CC0929201D0929301E09207
:107540009401F092950172CE9D3659F4E09192012A
:10755000F091930160925700E89507B600FCFDCFCB
:1075600065CE923551F4E0919201F0919301E5904E
:10757000F4908F2DF5DD8E2D5ACE943419F5D8DD8B
:10758000682F8091920190919301A0919401B09104
:107590009501B695A795979587953DD480919201D1
:1075A00090919301A0919401B09195010296A11D33
:1075B000B11D8093920190939301A0939401B09395
:1075C000950134CE9436F1F4C0909201D09093019D
:1075D000E0909401F0909501D701C601B695A7956A
:1075E0009795879510D4BCDD82E0C80ED11CE11CB4
:1075F000F11CC0929201D0929301E0929401F0921A
:10760000950103C09B3109F0B1CE7092E9009091D1
:10761000E8008091E8008E778093E80095FD11C026
:107620008091E80080FD04C08EB38111F9CF15C0B0
:107630008091E8008E778093E80003C08EB38823A2
:1076400061F08091E80080FFF9CF94E09093E90029
:107650008091E8008B778093E800B4D3CDCD809102
:10766000E00081608093E00082E49CED9093A101B2
:107670008093A0012CE088E190E00FB6F894A895E3
:10768000809360000FBE20936000FFCF1F920F9287
:107690000FB60F9211248F9380EC86B98F910F90C3
:1076A0000FBE0F901F90189542E061EC82E057D119
:1076B00042E161E883E053D142E160E884E04FC1F8
:1076C000809198018F77813269F580EC86B980913D
:1076D00099018032A1F0813229F580919801813A97
:1076E00009F58091E800877F8093E80067E070E00B
:1076F00081E091E09DD08091E8008B7711C080916E
:107700009801813279F48091E800877F8093E800C6
:1077100067E070E081E091E0E4D08091E8008E774E
:107720008093E8000895292F30E02230310539F0A8
:107730002330310549F02130310561F410C08EE36A
:1077400090E02AE331E01EC0882371F0813089F097
:107750008230A1F080E090E020E030E013C082E1D0
:1077600090E028E731E00EC084E090E026E331E0CD
:1077700009C088E190E02CE131E004C082E190E0B2
:1077800028E031E0FA0131832083089507B600FC38
:10779000FDCFF999FECF23E0FB0120935700E89538
:1077A00007B600FCFDCF81E180935700E89508956E
:1077B00007B600FCFDCFF999FECF25E0FB01209331
:1077C0005700E89507B600FCFDCF81E18093570094
:1077D000E895089507B600FCFDCFF999FECF21E0AA
:1077E000FB010A0120935700E8951124089521E236
:1077F000FC01209357008491089529E0FC01209317
:10780000570084910895E1E0F0E089E0809357000B
:107810008491089507B600FCFDCFF999FECF8095BD
:1078200099E0E1E0F0E0082E90935700E895089584
:1078300020919E0130919F012617370748F061156E
:10784000710539F42091E8002E772093E80001C0FB
:10785000B901FC0120E061157105A1F18EB3882307
:10786000E1F18530E1F18091E80083FD34C0809141
:10787000E80082FF06C08091E80082FF26C080E019
:1078800008958091E80080FFE6CF2091F300809179
:10789000F20090E0922B6115710551F0883091054E
:1078A00038F421912093F100615071090196F3CFD2
:1078B00021E0089709F020E08091E8008E7780931E
:1078C000E800C9CF2111CACFD6CF8EB3882329F0C3
:1078D000853089F604C081E0089582E0089583E050
:1078E00008956115710529F42091E8002B77209304
:1078F000E8006115710531F12EB3222361F12530C5
:1079000061F12091E80023FD22C02091E80022FFD0
:10791000F3CFFC01CF014091F3002091F20030E061
:10792000342B232B09F38091F1008193CF01615017
:1079300071096115710571F7D7CF8EB3882359F09E
:10794000853059F08091E80080FFF7CF02C081E0D8
:10795000089580E0089582E0089583E008958F708F
:107960008093E900EBEEF0E0808181608083EDEEB2
:10797000F0E010826093EC0040838091EE00881F5D
:107980008827881F08958091980187FD05C0809100
:10799000E80080FF0DC010C08091E80082FD04C0A7
:1079A0008EB38111F9CF08958091E8008B7707C0DD
:1079B0008EB38111ECCF08958091E8008E7780938B
:1079C000E80008950F931F93CF93DF9346D04DD0D7
:1079D000C8EDD0E088818F7788838881806888832C
:1079E00088818F7D888319BC1EBA1092960100EEA3
:1079F00010E0F80180818B7F80838881816088839B
:107A000042E060E080E0ABDFE1EEF0E080818E7F7D
:107A10008083E2EEF0E080818160808380818860F5
:107A20008083F80180818E7F808388818061888354
:107A3000DF91CF911F910F910895E8EDF0E08081E3
:107A40008F7E8083E7EDF0E080818160808384E039
:107A500082BF81E080939701B5CFE8EDF0E08081AF
:107A60008E7F80831092E20008951092DA001092C7
:107A7000E10008951F920F920FB60F9211242F93D9
:107A80003F934F935F936F937F938F939F93AF93A6
:107A9000BF93EF93FF938091DA0080FF1BC080912A
:107AA000D80080FF17C08091DA008E7F8093DA00C3
:107AB0008091D90080FF0BC080E189BD82E189BD42
:107AC00009B400FEFDCF81E08EBB7BD103C019BCA1
:107AD0001EBA77D18091E10080FF17C08091E2004B
:107AE00080FF13C08091E2008E7F8093E20080913E
:107AF000E20080618093E2008091D80080628093F0
:107B0000D80019BC85E08EBB5CD18091E10084FF78
:107B10002CC08091E20084FF28C080E189BD82E111
:107B200089BD09B400FEFDCF8091D8008F7D809380
:107B3000D8008091E1008F7E8093E1008091E20087
:107B40008F7E8093E2008091E20081608093E2006A
:107B500080919601811104C08091E30087FF02C0EB
:107B600084E001C081E08EBB2CD18091E10083FFD5
:107B700021C08091E20083FF1DC08091E100877FDA
:107B80008093E10082E08EBB109296018091E1002B
:107B90008E7F8093E1008091E2008E7F8093E200EF
:107BA0008091E20080618093E20042E060E080E04A
:107BB000D6DE07D1FF91EF91BF91AF919F918F9149
:107BC0007F916F915F914F913F912F910F900FBED9
:107BD0000F901F9018951F93CF93DF9300D0CDB7D0
:107BE000DEB7E8E9F1E08091F100819381E0E03ACD
:107BF000F807C9F765DD8091E80083FFCEC02091CA
:107C0000980130919901832F90E08A30910508F016
:107C1000C4C0FC01EA5AF74CF0C0203881F0223889
:107C200009F0BBC080919C018F708093E900909116
:107C3000EB0095FB992790F91092E90001C090E0C4
:107C40008091E800877F8093E8009093F100109284
:107C5000F10081C0822F8D7F09F09FC0223009F092
:107C60009CC080919A01811124C020919C012F70A9
:107C700009F493C02093E9008091EB0080FF19C0C4
:107C80008091EB00333011F4806211C080618093E9
:107C9000EB0081E090E0022E01C0880F0A94EAF721
:107CA0008093EA001092EA008091EB008860809354
:107CB000EB001092E9008091E800877F4FC021110E
:107CC0006CC010919A011F778091E3008078812B1E
:107CD0008093E3008091E800877F8093E80053DE83
:107CE0008091E80080FFFCCF8091E3008068809362
:107CF000E300112311F083E001C082E08EBB4DC090
:107D00002058223008F049C0AE014F5F5F4F6091AC
:107D10009C0180919A0190919B0105DD009709F4E7
:107D20003CC02091E800277F2093E800BC018981B6
:107D30009A817EDD8091E8008B778093E8002DC0EA
:107D4000203859F58091E800877F8093E800809182
:107D500096018093F1008091E8008E778093E8008F
:107D600012DE1BC0211119C090919A019230A8F423
:107D70008091E800877F8093E8009093960103DE6E
:107D800080919601811104C08091E30087FF02C0B9
:107D900084E001C081E08EBB87DC8091E80083FF36
:107DA0000AC08091E800877F8093E8008091EB0013
:107DB00080628093EB000F900F90DF91CF911F9125
:107DC00008950895CF938EB38823A9F08091E90098
:107DD0008F709091EC0090FF02C090E801C090E09D
:107DE000C92FC82B1092E9008091E80083FDF3DED3
:107DF000CF70C093E900CF910895EE0FFF1F05905B
:107E0000F491E02D0994F999FECF92BD81BDF89AC5
:107E1000992780B50895262FF999FECF1FBA92BDF4
:107E200081BD20BD0FB6F894FA9AF99A0FBE01965B
:067E30000895F894FFCF55
:107E3600010000000000000812034C005500460037
:107E460041002000430044004300000018034400A2
:107E5600650061006E002000430061006D00650052
:107E66007200610000000403090409023E000201D9
:107E760000803209040000010202010005240010FE
:107E860001042402000524060001070582030800F8
:107E9600FF09040100020A000000070504021000A1
:107EA60005070583021000051201100102000008F3
:107EB6004F1B07000001010200014C554641434497
:027EC600430077
:107FA000F5CB06CC17CC23CC28CC2DCC33CC0895E4
:087FB000089508950895089555
:107FE000DFCFDFCFDFCFDFCFDFCFDFCFDFCFDFCF21
:087FF000DFCFDFCFDFCFDFCFD1
:087FF8000070000000DFFBDC5B
:040000030000700089
:00000001FF
